S015000074696D65722D636F756E7465722E73726563C1
S113000033C000003AC000004DC0000035C00000FD
S113001033C0000031C000002FC000002DC000001C
S11300202BC0000029C0000027C0000056C00000FB
S113003072C0000021C000001FC000001DC00000ED
S11300401BC0000019C0000017C0000015C000004C
S113005013C0000011C000000FC000000DC000005C
S11300600BC0000009C0000011241FBECFEFD8E070
S1130070DEBFCDBF5FD087C0C3CF1F920F920FB634
S11300800F9211248F934A9904C085B18D7F85B94D
S113009003C085B1826085B98F910F900FBE0F9018
S11300A01F9018951F920F920FB60F9211248F93E1
S11300B09F9385B18B7F85B9809184009091850051
S11300C08F5E954890938B0080938A009F918F91C7
S11300D00F900FBE0F901F9018951F920F920FB69E
S11300E00F9211248F939F93EF93FF9395B189E01F
S11300F0892785B9E8E8F0E0808191818F5E954891
S113010091838083FF91EF919F918F910F900FBE08
S11301100F901F9018951F920F920FB60F921124F3
S11301208F9385B1846085B98F910F900FBE0F9026
S11301301F9018958AB1837F8AB984B18F6084B97E
S113014085B18F6085B9E1E8F0E0808184608083C7
S113015081E19AE79093890080938800EFE6F0E0CC
S11301608081866080838DB383608DBBE9E6F0E097
S113017080818C60808380818D7F80838081816099
S10D018080837894FFCFF894FFCF3A
S9030000FC
