S011000066697A7A2D62757A7A2E7372656358
S113000009C00EC00DC00CC00BC00AC009C008C096
S113001007C006C011241FBECFE9CDBF02D0B2C0B5
S1130020EFCF87B3816087BB87B3826087BB87B319
S1130030846087BB87B3886087BB20E030E073C0EF
S1130040C90163E070E077D0FC01892BE1F4C901B8
S113005065E070E070D0892BB1F488B3846088BB0C
S11300604FE98AE793E0415080409040E1F700C0B7
S1130070000088B38B7F88BB87E99AE30197F1F787
S113008000C0000049C0EF2BB1F488B3816088BB85
S11300909FE94AE783E0915040408040E1F700C087
S11300A0000088B38E7F88BB87E99AE30197F1F754
S11300B000C0000031C0C90165E070E03CD0892B6C
S11300C0B1F488B3826088BB9FE94AE783E091502A
S11300D040408040E1F700C0000088B38D7F88BBBA
S11300E087E99AE30197F1F700C0000015C088B3CF
S11300F0886088BB9FE94AE783E091504040804094
S1130100E1F700C0000088B3877F88BB87E99AE3E2
S11301100197F1F700C000002536310514F020E006
S113012030E02F5F3F4F283E93E039070CF488CF2F
S113013080E090E0089597FB072E16F4009406D013
S113014077FD08D00BD007FC05D03EF4909581953F
S11301509F4F0895709561957F4F0895AA1BBB1B0F
S113016051E107C0AA1FBB1FA617B70710F0A61BB3
S1130170B70B881F991F5A95A9F780959095BC01D4
S10B0180CD010895F894FFCFAE
S9030000FC
