S0170000656C656374726F6E69632D646963652E7372656323
S113000012C022C021C020C01FC01EC01DC01CC001
S11300101BC01AC019C018C017C016C015C014C020
S113002013C012C011C011241FBECFEDCDBF10E00C
S1130030A0E6B0E0E4E9F2E002C005900D92A43637
S1130040B107D9F72FD024C1DBCF83309105B1F0AC
S113005034F48130910551F0029761F008958530B0
S11300609105A1F07CF00697A9F0089588B38E7FDE
S113007088BB089588B38D7F88BB089588B38C7F2F
S113008088BB089588B38B7F88BB089588B38A7F23
S113009088BB089588B3897F88BB089588B3876037
S11300A088BB08958AB38C7F8ABB8BB383608BBB78
S11300B087B3876087BBF2DFC89BF0DFC999FCCFA9
S11300C0EDDF2FE38DE093E0215080409040E1F795
S11300D000C0000077D066E070E003D00196B5DF81
S11300E0EBCF97FB072E16F4009406D077FD08D0CB
S11300F00BD007FC05D03EF4909581959F4F089551
S1130100709561957F4F0895AA1BBB1B51E107C0F1
S1130110AA1FBB1FA617B70710F0A61BB70B881F93
S1130120991F5A95A9F780959095BC01CD01089522
S11301308F929F92AF92BF92CF92DF92EF92FF92F3
S1130140CF93DF93EC01688179818A819B8161156A
S113015071058105910521F464E279ED8BE597E061
S11301602DE133EF41E050E055D049015A0127EA2F
S113017031E440E050E035D06B017C012CEE34EFEB
S11301804FEF5FEFC501B4012CD0DC01CB018C0D26
S11301909D1DAE1DBF1DB7FF03C00197A109B04847
S11301A088839983AA83BB839F77DF91CF91FF9044
S11301B0EF90DF90CF90BF90AF909F908F90089575
S11301C0B7DF089580E690E0B3DF0895A0E0B0E0E3
S11301D08093600090936100A0936200B0936300E9
S11301E00895EE27FF27AA27BB2708C0A20FB31F35
S11301F0E41FF51F220F331F441F551F9695879543
S11302007795679598F37040A9F7009799F7BD0122
S1130210CF010895052E97FB16F400940FD057FDD7
S113022005D014D007FC02D046F408C05095409580
S1130230309521953F4F4F4F5F4F0895909580958E
S1130240709561957F4F8F4F9F4F0895A1E21A2EAD
S1130250AA1BBB1BFD010DC0AA1FBB1FEE1FFF1F66
S1130260A217B307E407F50720F0A21BB30BE40BB6
S1130270F50B661F771F881F991F1A9469F76095FD
S11302807095809590959B01AC01BD01CF010895B7
S1070290F894FFCF0C
S10702940100000061
S9030000FC
